:020000040800F2
:1000000000500020111200082107000825070008F1
:10001000290700082D07000831070008000000002C
:10002000000000000000000000000000350700088C
:1000300039070008000000003D07000841070008DC
:1000400059120008591200085912000859120008E4
:1000500059120008591200085912000859120008D4
:1000600059120008591200085912000859120008C4
:1000700059120008591200085912000859120008B4
:1000800059120008591200085912000859120008A4
:100090005912000859120008591200085912000894
:1000A0005912000859120008591200085912000884
:1000B0005912000859120008591200085912000874
:1000C0005912000859120008591200085912000864
:1000D0005912000859120008591200085912000854
:1000E00059120008591200085912000800000000B7
:1000F0000000000000000000000000000000000000
:0C01000000000000000000005FF808F1A3
:10010C00044B05481B1A062B02D9044B03B11847A4
:10011C00704700BF6B00002068000020000000004A
:10012C0005490648091A891001EBD171491002D012
:10013C00034B03B11847704768000020680000208B
:10014C000000000010B5064C237843B9FFF7D8FF28
:10015C00044B13B10448AFF300800123237010BD8E
:10016C006800002000000000FC1A000808B5084BCD
:10017C001BB108480849AFF300800848036813B95D
:10018C00BDE80840CCE7064B002BF9D09847F7E7C1
:10019C0000000000FC1A00086C0000206800002021
:1001AC000000000010B50446074B1B680748A0FB75
:1001BC000330800900F064F94FF0FF302146002233
:1001CC0000F02CF9002010BD00000020D34D62106F
:1001DC0008B5074A136843F010031360032000F0BE
:1001EC000BF90020FFF7DEFF00F0AAFA002008BD93
:1001FC0000200240024A136801331360704700BFAD
:10020C0090000020014B1868704700BF9000002040
:10021C0030B583B00190FFF7F5FF0546019CB4F1B2
:10022C00FF3F00D00134FFF7EDFF401BA042FAD393
:10023C0003B030BD10B588B0174B9A6942F010026C
:10024C009A619A6902F010020192019A9A6942F03D
:10025C0020029A619A6902F020020292029A9A692B
:10026C0042F004029A619B6903F004030393039B1D
:10027C000A4C20464FF40051002200F01FFA4FF4B4
:10028C00005304930123059302230793204604A9EA
:10029C0000F022F908B010BD00100240001001401F
:1002AC00FEE700BF08B50B480B4B03604FF4E1337E
:1002BC00436000238360C36003610C22426183614D
:1002CC00C36100F0FDFE18B10448BB21FFF7E8FF45
:1002DC0008BD00BF9400002000380140281B000816
:1002EC0000B591B0012206924FF4803307930021A0
:1002FC0008910A9202220D920E934FF4E0130F9381
:10030C0006A800F0ABFA18B114489021FFF7C8FF0B
:10031C000F23019302210291002303934FF4806277
:10032C000492059301A800F0D1FC18B10B489E2152
:10033C00FFF7B6FF00F08CFD094BA3FB00308009E2
:10034C0000F09EF8042000F0B1F84FF0FF300021CF
:10035C000A4600F063F811B05DF804FB281B000896
:10036C00D34D621030B58BB0FFF732FFFFF7B8FFFB
:10037C00FFF760FFFFF796FF1B4B05AC0FCB07C4D5
:10038C0024F8023B1B0C237005A800F0ABFF0246BF
:10039C006846164900F082FF154D28464FF400516F
:1003AC00002200F08BF94FF47A70FFF731FF05A8AB
:1003BC0000F098FF0F4C82B2204605A9642300F090
:1003CC00B1FE28464FF40051012200F077F9642069
:1003DC00FFF71EFF684600F085FF82B22046694693
:1003EC00642300F09FFED7E7341B0008441B000871
:1003FC00001001409400002000F00700064AD3686A
:10040C0023F4E0631B041B0C43EA002040F0BF60A4
:10041C0040F40030D060704700ED00E030B4164B73
:10042C00DC68C4F30224C4F10705042D28BF04259D
:10043C00231D062B01D9033C00E00024012303FA01
:10044C0005F5013D2940A140A340013B1A400A4358
:10045C00002806DA00F00F001201D2B2074B1A5432
:10046C0007E01201D2B200F1604000F5614080F863
:10047C00002330BC704700BF00ED00E014ED00E03D
:10048C000138B0F1807F0AD2064B5860F021064A41
:10049C0082F823100020986007221A607047012010
:1004AC00704700BF10E000E000ED00E0042805D12B
:1004BC00054A136843F0040313607047024A13683B
:1004CC0023F004031360704710E000E0704700BF96
:1004DC0008B5FFF7FBFF08BDF0B583B000273C461D
:1004EC00DAE00122A2400B681340934240F0D38023
:1004FC004D68122D2DD00BD8022D27D003D85DB30B
:10050C00012D1ED035E0032D30D0112D1BD030E045
:10051C00644EB54220D008D8A6F58016B5421BD043
:10052C0006F58036B54224D116E05F4EB54213D0A5
:10053C0006F58036B5420FD0A6F58016B54218D117
:10054C000AE0CF6815E0CF68043712E0CF680837AF
:10055C000FE0CF680C370CE08D684DB1012D02D146
:10056C000261082705E04261082702E0002700E04D
:10057C000427FF2B01D8844601E000F1040CFF2B6B
:10058C0002D84FEA840E03E0A4F1080E4FEA8E0E57
:10059C00DCF800600F2202FA0EF226EA020507FAD6
:1005AC000EF22A43CCF800204A6812F0805F72D019
:1005BC003E4A956945F001059561926902F0010288
:1005CC000192019A4FEA940E0EF10205384A52F844
:1005DC00256004F0030C4FEA8C0C0F2202FA0CF28B
:1005EC0026EA0205334A904213D002F5806290420B
:1005FC000DD002F58062904207D002F580629042E5
:10060C0001D1032206E0042204E0022202E00122CE
:10061C0000E0002202FA0CF22A430EF1020E244DE5
:10062C0045F82E204A6812F4803F05D005F5806508
:10063C002A681A432A6004E01F4D2A6822EA030242
:10064C002A604A6812F4003F04D01B4D6A681A43B2
:10065C006A6004E0184D6A6822EA03026A604A681C
:10066C0012F4801F04D0144DAA681A43AA6004E047
:10067C00114DAA6822EA0302AA604A6812F4001F0C
:10068C0004D00D4DEA681343EB6004E00A4DEA68B0
:10069C0022EA0303EB6001340F2C7FF622AF03B088
:1006AC00F0BD00BF0000211000003110001002400E
:1006BC000000014000080140000401400AB1016142
:1006CC0070470904016170470F4B1A6842F0010230
:1006DC001A6059680D4A0A405A601A6822F08472EE
:1006EC0022F480321A601A6822F480221A605A6846
:1006FC0022F4FE025A604FF41F029A604FF000621F
:10070C00034B9A60704700BF001002400000FFF8D6
:10071C0000ED00E0704700BFFEE700BFFEE700BF42
:10072C00FEE700BFFEE700BF704700BF704700BF89
:10073C00704700BF08B5FFF75DFDFFF7C9FE08BDA8
:10074C0000B583B0214B9A6942F001029A619B6912
:10075C0003F001030193019B0320FFF74DFE6FF0A3
:10076C000B0000210A46FFF759FE6FF00A0000212A
:10077C000A46FFF753FE6FF0090000210A46FFF707
:10078C004DFE6FF0040000210A46FFF747FE6FF0A4
:10079C00030000210A46FFF741FE6FF00100002123
:1007AC000A46FFF73BFE4FF0FF3000210A46FFF7E9
:1007BC0035FE074B5A6822F0E0625A605A6842F0E4
:1007CC0000725A6003B05DF804FB00BF00100240D9
:1007DC00000001400268144B9A4224D110B586B037
:1007EC0003F558439A6942F480429A619B6903F479
:1007FC0080430193019B4FF40073029302230393F4
:10080C0003230593094C204602A9FFF765FE4FF41C
:10081C0080630293002303930493204602A9FFF7FD
:10082C005BFE06B010BD7047003801400008014067
:10083C0082B0084B1B68084AA2FB03235B0A00FB2F
:10084C0003F0019000BF019B5A1E0192002BF9D1BD
:10085C0002B0704700000020D34D621070B582B01A
:10086C000446036813F0010F6BD0A84B5B6803F0D0
:10087C000C03042B0AD0A54B5B6803F00C03082B6C
:10088C000DD1A24B5B6813F4803F08D09F4B1B68C3
:10089C0013F4003F55D06368002B52D1B8E1636864
:1008AC00B3F5803F05D1994A136843F48033136044
:1008BC0026E063B903F1804303F504331A6822F48C
:1008CC0080321A601A6822F480221A6018E0B3F59C
:1008DC00A02F0CD103F18043A3F53C331A6842F4EA
:1008EC0080221A601A6842F480321A6008E0874B42
:1008FC001A6822F480321A601A6822F480221A6074
:10090C0063687BB1FFF77EFC054605E0FFF77AFCD8
:10091C00401B642800F27E817C4B1B6813F4003F63
:10092C00F4D00EE0FFF76EFC054605E0FFF76AFC1D
:10093C00401B642800F27081744B1B6813F4003F59
:10094C00F4D1236813F0020F50D0704B5B6813F096
:10095C000C0F0AD06D4B5B6803F00C03082B16D1FF
:10096C006A4B5B6813F4803F11D1684B1B6813F022
:10097C00020F03D02369012B40F05081634A1368A6
:10098C0023F0F803616943EAC10313602EE0236985
:10099C00D3B101225E4B1A60FFF734FC054605E02B
:1009AC00FFF730FC401B022800F23A81574B1B68C2
:1009BC0013F0020FF4D0554A136823F0F803616961
:1009CC0043EAC103136011E00022514B1A60FFF798
:1009DC0019FC054605E0FFF715FC401B022800F248
:1009EC0021814A4B1B6813F0020FF4D1236813F0DA
:1009FC00080F29D0A369ABB10122464B1A60FFF74F
:100A0C0001FC054605E0FFF7FDFB401B022800F248
:100A1C000B813E4B5B6A13F0020FF4D00120FFF701
:100A2C0007FF11E000223B4B1A60FFF7EBFB05467A
:100A3C0005E0FFF7E7FB401B022800F2F780334B81
:100A4C005B6A13F0020FF4D1236813F0040F00F06B
:100A5C0089802E4BDB6913F0805F0BD12B4BDA694D
:100A6C0042F08052DA61DB6903F080530193019B01
:100A7C00012500E00025284B1B6813F4807F13D15F
:100A8C00254A136843F480731360FFF7BBFB0646DB
:100A9C0005E0FFF7B7FB801B642800F2C9801E4BF2
:100AAC001B6813F4807FF4D0E368012B05D1174A3F
:100ABC00136A43F00103136222E063B903F180432C
:100ACC0003F504331A6A22F001021A621A6A22F040
:100ADC0004021A6214E0052B09D10C4B1A6A42F07D
:100AEC0004021A621A6A42F001021A6208E0074B09
:100AFC001A6A22F001021A621A6A22F004021A62BD
:100B0C00E368CBB1FFF77EFB06460FE00010024016
:100B1C00000042428004424200700040FFF772FB2A
:100B2C00801B41F28833984200F28480494B1B6A47
:100B3C0013F0020FF2D00FE0FFF764FB064606E05D
:100B4C00FFF760FB801B41F28833984274D8414B0D
:100B5C001B6A13F0020FF3D125B13E4AD36923F07F
:100B6C008053D361E369002B68D03A4A526802F093
:100B7C000C02082A64D0022B37D10022364B1A60A3
:100B8C00FFF740FB054604E0FFF73CFB401B022847
:100B9C0058D8304B1B6813F0007FF5D1236AB3F59E
:100BAC00803F06D12B494B6823F40032A3681343D2
:100BBC004B602848436823F47411236A626A134318
:100BCC000B4343600122244B1A60FFF71BFB0446C6
:100BDC0004E0FFF717FB001B022835D81D4B1B68E0
:100BEC0013F0007FF5D0002031E000221A4B1A6080
:100BFC00FFF708FB044604E0FFF704FB001B022888
:100C0C0024D8144B1B6813F0007FF5D100201EE094
:100C1C0001201CE003201AE0032018E0012016E05C
:100C2C00032014E0032012E0032010E003200EE068
:100C3C0003200CE003200AE0032008E0002006E07B
:100C4C00012004E0032002E0032000E0032002B0B6
:100C5C0070BD00BF001002406000424230B486B04C
:100C6C00164D02AC28686968AA68EB680FC42B8A19
:100C7C00ADF80430124B5A6802F00C03082B19D152
:100C8C00C2F3834306A90B4413F8103C12F4803FC3
:100C9C000CD00B4A5268C2F340420A4412F8140CAE
:100CAC00084AB2FBF0F003FB00F004E0064800FB3E
:100CBC0003F000E0034806B030BC7047141B00087A
:100CCC000010024000127A0000093D0070B55C4B28
:100CDC001B6803F007038B420BD2594A136823F0AD
:100CEC0007030B431360136803F007038B4240F0B8
:100CFC009780036813F0020F06D0524C636823F000
:100D0C00F0028368134363600D460446036813F0D6
:100D1C00010F4DD04268012A05D14A4B1B6813F4D0
:100D2C00003F0DD17EE0022A05D1464B1B6813F023
:100D3C00007F05D178E0434B1B6813F0020F75D090
:100D4C0040494B6823F0030313434B60FFF75AFAF7
:100D5C0006466368012B0ED106E0FFF753FA801BA1
:100D6C0041F28833984263D8364B5B6803F00C032E
:100D7C00042BF2D11CE0022B15D106E0FFF742FA4E
:100D8C00801B41F28833984254D82E4B5B6803F099
:100D9C000C03082BF2D10BE0FFF734FA801B41F265
:100DAC008833984248D8274B5B6813F00C0FF3D16B
:100DBC00234B1B6803F00703AB420AD9204A136884
:100DCC0023F007032B431360136803F00703AB42B4
:100DDC0034D1236813F0040F06D01A494B6823F45E
:100DEC00E062E36813434B60236813F0080F07D0ED
:100DFC00144A536823F46053216943EAC1035360D6
:100E0C00FFF72CFF0F4B5B68C3F303130E4AD35C45
:100E1C00D8400E4B18600020FFF7C4F9002070BDBD
:100E2C00012070BD012070BD012070BD012070BD7E
:100E3C00032070BD032070BD032070BD012070BD68
:100E4C0000200240001002404C1B00080000002053
:100E5C00014B1868704700BF0000002008B5FFF771
:100E6C00F7FF044B5B68C3F30223034AD35CD840FF
:100E7C0008BD00BF001002405C1B000808B5FFF75E
:100E8C00E7FF044B5B68C3F3C223034AD35CD8402F
:100E9C0008BD00BF001002405C1B00082DE9F843A0
:100EAC00814601680B6923F44052C36813430B61FC
:100EBC00816803691943436919430068C26822F4C5
:100ECC00B05323F00C030B43C360D9F800104B69EB
:100EDC0023F44072D9F8183013434B61D9F8005001
:100EEC005B4B9D4259D1FFF7C9FF00EB800000EB33
:100EFC008000D9F80440A400B0FBF4F4554EA6FBD6
:100F0C00043464092401FFF7B9FF00EB800000EB07
:100F1C008000D9F804309B00B0FBF3F7FFF7AEFF6D
:100F2C0000EB800000EB8000D9F804309B00B0FB94
:100F3C00F3F3A6FB03235B094FF0640808FB137360
:100F4C001B013233A6FB03235B0903F0F0031C44A3
:100F5C00FFF794FF00EB800000EB8000D9F8043021
:100F6C009B00B0FBF3F7FFF789FF00EB800000EB71
:100F7C008000D9F804309B00B0FBF3F3A6FB0323ED
:100F8C005B0908FB13731B013233A6FB0323C3F36A
:100F9C0043131C44AC60BDE8F883FFF75FFF00EB24
:100FAC00800000EB8000D9F80440A400B0FBF4F4FE
:100FBC00284EA6FB043464092401FFF74FFF00EB15
:100FCC00800000EB8000D9F804309B00B0FBF3F7F5
:100FDC00FFF744FF00EB800000EB8000D9F80430F1
:100FEC009B00B0FBF3F3A6FB03235B094FF06408F3
:100FFC0008FB13731B013233A6FB03235B0903F0BD
:10100C00F0031C44FFF72AFF00EB800000EB80008C
:10101C00D9F804309B00B0FBF3F7FFF71FFF00EB90
:10102C00800000EB8000D9F804309B00B0FBF3F398
:10103C00A6FB03235B0908FB13731B013233A6FBCE
:10104C000323C3F343131C44AC60BDE8F88300BF17
:10105C00003801401F85EB512DE9F04106460C4646
:10106C0017469846069D1EE0B5F1FF3F1BD02DB1EB
:10107C00FFF7C8F8C8EB0000A84214D93268D3684F
:10108C0023F4D073D3603268536923F001035361A6
:10109C00202386F8393086F83A30002386F8383029
:1010AC000320BDE8F08133681B682340A34214BFC2
:1010BC0000230123BB42D7D00020BDE8F08100BF44
:1010CC0068B310B5044690F8393013F0FF0F04D113
:1010DC00002380F83830FFF77DFB242384F8393067
:1010EC002268D36823F40053D3602046FFF7D6FE62
:1010FC002268136923F4904313612268536923F027
:10110C002A0353612268D36843F40053D360002050
:10111C00E063202384F8393084F83A3010BD012084
:10112C00704700BF2DE9F04182B004461E4690F88E
:10113C003930DBB2202B54D10D469046002952D0C9
:10114C00002A52D090F83830012B50D0012380F86F
:10115C0038300023C363212380F83930FFF752F86D
:10116C000746A4F82480A4F8268026E0E38C013BF3
:10117C009BB2E384A368B3F5805F12D1009620463E
:10118C00802100223B46FFF767FF90BB22682B882B
:10119C00C3F30803536023690BB902350DE0013525
:1011AC000BE000962046802100223B46FFF754FFBF
:1011BC0008BB23682A785A600135E38C9BB2002B5C
:1011CC00D4D100962046402100223B46FFF744FF35
:1011DC00034690B9202284F83920002284F8382064
:1011EC000CE002230AE0012308E0012306E00223BD
:1011FC0004E0032302E0032300E00323184602B0BB
:10120C00BDE8F081002103E00B4B5B5843500431E7
:10121C000A480B4B42189A42F6D30A4A02E00023C2
:10122C0042F8043B084B9A42F9D3FFF74DFA00F011
:10123C000FF8FFF797F87047A41B00080000002078
:10124C006800002068000020D8000020FEE70000A5
:10125C000E4B70B51E460E4C0025E41AA410A54288
:10126C0004D056F8253098470135F8E700F040FCDB
:10127C00084B094C1E46E41AA4100025A54204D0C4
:10128C0056F8253098470135F8E770BD9C1B0008CF
:10129C009C1B00089C1B0008A01B00080EB400B58A
:1012AC004FF402719CB0ADF814106FF00041049132
:1012BC0007914FF6FF711DABADF81610084953F8A6
:1012CC00042B02900690086802A9019300F06CF8B8
:1012DC00029B00221A701CB05DF804EB03B070473F
:1012EC0064000020034613F8012B002AFBD1181AC6
:1012FC00013870472DE9F0478E688246B3420C46A0
:10130C009046994640D38A8912F4906F3AD025685A
:10131C00096902236F1A656905EB450595FBF3F521
:10132C007B1C4B449D4238BF1D4653050FD52946A7
:10133C0000F03AFB064698B121693A4600F0CAFA29
:10134C00A38923F4906343F08003A38113E02A461E
:10135C0000F080FB064670B95046216900F0E0FAB7
:10136C000C23CAF80030A3894FF0FF3043F0400340
:10137C00A381BDE8F08726613E4426604E46656138
:10138C00ED1BA560B14500D24E4632462068414661
:10139C0000F0ABFAA36800209B1BA36023681E44DB
:1013AC002660BDE8F08700002DE9F0439DB0039363
:1013BC008B8906461C060D4690460CD50B6953B915
:1013CC00402100F0F1FA2860286110B90C23336039
:1013DC00CCE040236B610023099320238DF8293046
:1013EC0030238DF82A3043461C4613F8012B1AB9CA
:1013FC00B4EB08090FD002E0252AF5D1F8E7304606
:10140C00294642464B46FFF775FF013000F0A98094
:10141C00099B4B4409932378002B00F0A2800023F6
:10142C004FF0FF3204930793059206938DF85330D7
:10143C001A9304F101084446DFF848912178484694
:10144C00052200F039FA08F10108049B30B1C9EB10
:10145C0000000122824013430493ECE7D80644BFFA
:10146C0020228DF85320190744BF2B228DF85320CE
:10147C0022782A2A02D0079923460EE0039A0134D7
:10148C00111D12680391002ABBBF524243F00203A4
:10149C0007920792B8BF04930AE01C4622780133E6
:1014AC00303A092A03D80A2000FB0121F5E70791FD
:1014BC0023782E2B1AD163782A2B0AD1039B023462
:1014CC001A1D1B680392002BB8BF4FF0FF33059316
:1014DC000CE0611C00220C4623780131303B092BB7
:1014EC0003D80A2000FB0232F5E70592DFF898805A
:1014FC0021784046032200F0DFF938B1049AC8EB9A
:10150C0000004023834013430493013421781A488C
:10151C00062204F101088DF8281000F0CDF988B1ED
:10152C00164B33B9039B073323F00703083303939C
:10153C0013E003AB0093304604A92A46104BAFF3DB
:10154C00008007E003AB0093304604A92A460C4BFD
:10155C0000F092F8421C074603D0099B3B440993C8
:10156C0041E7AB895B0601D4099801E04FF0FF30ED
:10157C001DB0BDE8F08300BF701B00080000000028
:10158C0001130008661B00086C1B00082DE9F843CA
:10159C0091461F468A680B6906469342B8BF1346AC
:1015AC00C9F8003091F843200C46DDF8208012B1C8
:1015BC000133C9F800302368990642BFD9F80030CE
:1015CC000233C9F80030256815F006051CD094F8D4
:1015DC0043302268003318BF012392061FD5E1184F
:1015EC00302081F843005A1C94F8451022440233F1
:1015FC0082F8431013E03046394604F119020123F6
:10160C00C047013007D00135E368D9F800209B1A98
:10161C009D42F0DBDBE74FF0FF30BDE8F88330464E
:10162C00394604F14302C0470130F4D02268D9F89E
:10163C000050E36802F00602042A08BF5D1B226911
:10164C00A3680CBF25EAE57500259342C4BF9B1A1D
:10165C00ED184FF00009A9450ADA3046394604F175
:10166C001A020123C0470130D5D009F10109F2E774
:10167C000020BDE8F88300002DE9FF410C46174619
:10168C00227E98466E2A06460A9B01F1430100F021
:10169C00B08012D8632A23D00AD8002A00F0BD806B
:1016AC00582A40F0CC8084F84520DFF804E257E05B
:1016BC00642A1ED0692A1CD0C1E0732A00F0B180C4
:1016CC0009D86F2A2ED0702A40F0B980226842F0D7
:1016DC00200222603FE0752A24D0782A3BD0AEE06D
:1016EC001A6804F14205111D1960136884F8423020
:1016FC00A9E020681A6810F0800F02D0101D186045
:10170C0008E010F0400F02F10400186002D0B2F9AA
:10171C00003000E01368002B3EDA2D225B4284F887
:10172C00432039E020681A6810F0800F02D0101D99
:10173C00186007E010F0400F02F10400186001D0AF
:10174C00138800E01368227EDFF864E16F2A0CBF77
:10175C0008220A221CE07822DFF858E184F84520A0
:10176C002268186812F0800F00F104051D6003D187
:10177C00550601D5038800E00368D00744BF42F04A
:10178C00200222601BB9226822F020022260102263
:10179C00002084F8430002E0DFF814E10A226568B7
:1017AC00002DA8BF2068A560A4BF20F00400206015
:1017BC0003B965B10D46B3FBF2F002FB10331EF812
:1017CC00033005F8013D03460028F4D100E00D4636
:1017DC00082A0BD12368DA0708D5236962689A4274
:1017EC00DEBF302305F8013C05F1FF35491B2161B3
:1017FC002EE025681A6815F0800F606903D0151D5E
:10180C001D60136808E015F0400F02F104051D601F
:10181C00136801D0188000E01860002323610D4686
:10182C0016E01A68111D19601568002128466268B7
:10183C0000F042F808B1401B6060636804E004F1FA
:10184C00420584F8422001232361002384F84330AD
:10185C00CDF800803046214603AA3B46FFF796FEA2
:10186C00013002D14FF0FF301FE0304639462A4696
:10187C002369C0470130F5D023689B0705D4E06885
:10188C00039B9842B8BF18460FE00025E368039A03
:10189C009B1A9D42F3DA3046394604F119020123B2
:1018AC00C0470130DED00135F0E704B0BDE8F0816F
:1018BC00771B0008881B000810B5C9B2024490427F
:1018CC00034605D01C7801308C42F8D1184610BD67
:1018DC00002010BD10B5431E0A44914204D011F8EB
:1018EC00014B03F8014FF8E710BD814210B501EB35
:1018FC00020301D3421E0BE09842FBD28118D21A8C
:10190C00D34204D013F8014D01F8014DF8E710BD96
:10191C00994204D011F8014B02F8014FF8E710BDC1
:10192C0030B500293CD051F8042C0B1F1D49002A5E
:10193C00B8BF9B180A680C4612B95A600B6030BDD0
:10194C0093420DD219685818904201BF5A58521838
:10195C001A60426823605A6030BD994203D80A4627
:10196C0051680029F9D1146815199D420AD11B68D8
:10197C002344D0188842136012D1086803441360C2
:10198C004B680CE002D90C23036030BD1C6818199D
:10199C00884201BF08684968001918605960536093
:1019AC0030BD00BF8800002070B5CC1C24F00304AF
:1019BC0008340C2C38BF0C24002C064603DA0C23FC
:1019CC003360002070BD8C42F9D3204A1368104656
:1019DC001946A1B10A68121B0ED40B2A03D90A604E
:1019EC008B188C501FE08B420BBF5A684A68026000
:1019FC005A6018BF0B4616E00B464968E9E7144DD0
:101A0C002B681BB9304600F04BF828603046214655
:101A1C0000F046F8421C0346D1D0C51C25F0030546
:101A2C0085420AD11C6003F10B001A1D20F007003F
:101A3C00821A0AD05142995070BD3046E91A00F012
:101A4C002FF80130BBD02B46ECE770BD880000208E
:101A5C0084000020F8B5074615460E4621B91146FC
:101A6C00BDE8F840FFF7A0BF1AB9FFF759FF2846A9
:101A7C00F8BD00F025F8A8420ED238462946FFF7EB
:101A8C0093FF044650B131462A46FFF723FF3846F0
:101A9C003146FFF745FF01E03046F8BD2046F8BD62
:101AAC0038B5064C002305460846236000F012F8B2
:101ABC00431C02D1236803B12B6038BDD400002035
:101ACC0051F8040C0028BEBF091851F8043CC0188A
:101ADC0004387047044A05491368002B08BF0B46AD
:101AEC0018441060184670478C000020D800002065
:101AFC00F8B500BFF8BC08BC9E467047F8B500BFEF
:081B0C00F8BC08BC9E467047BE
:101B140002030405060708090A0B0C0D0E0F10102A
:101B2400010200005372632F6D61696E2E63000021
:101B340048656C6C6F20576F726C64202D20000018
:101B440025640A0D000000000000000000000000F1
:101B5400010203040607080900000000010203044F
:101B64004300232D302B2000686C4C0065666745CC
:101B74004647003031323334353637383941424301
:101B840044454600303132333435363738396162B2
:081B94006364656600000000B7
:041B9C0079010008C3
:041BA00051010008E7
:101BA40000A24A0400000000000000000000000041
:101BB4000000000000000000000000000000000021
:101BC40000000000641B000800000000000000008A
:101BD4000000000000000000000000000000000001
:101BE40000000000000000000000000000000000F1
:101BF40000000000000000000000000000000000E1
:081C04000000000004000020B4
:0400000508001211CC
:00000001FF
